{
  "contractName": "Users",
  "abi": [
    {
      "constant": true,
      "inputs": [
        {
          "name": "",
          "type": "uint256"
        }
      ],
      "name": "users",
      "outputs": [
        {
          "name": "username",
          "type": "string"
        },
        {
          "name": "password",
          "type": "string"
        },
        {
          "name": "wallet_address",
          "type": "string"
        }
      ],
      "payable": false,
      "stateMutability": "view",
      "type": "function"
    },
    {
      "constant": true,
      "inputs": [],
      "name": "usersCount",
      "outputs": [
        {
          "name": "",
          "type": "uint256"
        }
      ],
      "payable": false,
      "stateMutability": "view",
      "type": "function"
    },
    {
      "inputs": [],
      "payable": false,
      "stateMutability": "nonpayable",
      "type": "constructor"
    },
    {
      "constant": false,
      "inputs": [
        {
          "name": "_username",
          "type": "string"
        },
        {
          "name": "_password",
          "type": "string"
        },
        {
          "name": "_wallet_address",
          "type": "string"
        }
      ],
      "name": "addUser",
      "outputs": [],
      "payable": false,
      "stateMutability": "nonpayable",
      "type": "function"
    }
  ],
  "bytecode": "0x608060405234801561001057600080fd5b506000600181905550610664806100286000396000f300608060405260043610610057576000357c0100000000000000000000000000000000000000000000000000000000900463ffffffff168063365b98b21461005c5780636ba13a82146101da57806395c5fed414610205575b600080fd5b34801561006857600080fd5b50610087600480360381019080803590602001909291905050506102fa565b60405180806020018060200180602001848103845287818151815260200191508051906020019080838360005b838110156100cf5780820151818401526020810190506100b4565b50505050905090810190601f1680156100fc5780820380516001836020036101000a031916815260200191505b50848103835286818151815260200191508051906020019080838360005b8381101561013557808201518184015260208101905061011a565b50505050905090810190601f1680156101625780820380516001836020036101000a031916815260200191505b50848103825285818151815260200191508051906020019080838360005b8381101561019b578082015181840152602081019050610180565b50505050905090810190601f1680156101c85780820380516001836020036101000a031916815260200191505b50965050505050505060405180910390f35b3480156101e657600080fd5b506101ef6104ec565b6040518082815260200191505060405180910390f35b34801561021157600080fd5b506102f8600480360381019080803590602001908201803590602001908080601f0160208091040260200160405190810160405280939291908181526020018383808284378201915050505050509192919290803590602001908201803590602001908080601f0160208091040260200160405190810160405280939291908181526020018383808284378201915050505050509192919290803590602001908201803590602001908080601f01602080910402602001604051908101604052809392919081815260200183838082843782019150505050505091929192905050506104f2565b005b6000602052806000526040600020600091509050806000018054600181600116156101000203166002900480601f0160208091040260200160405190810160405280929190818152602001828054600181600116156101000203166002900480156103a65780601f1061037b576101008083540402835291602001916103a6565b820191906000526020600020905b81548152906001019060200180831161038957829003601f168201915b505050505090806001018054600181600116156101000203166002900480601f0160208091040260200160405190810160405280929190818152602001828054600181600116156101000203166002900480156104445780601f1061041957610100808354040283529160200191610444565b820191906000526020600020905b81548152906001019060200180831161042757829003601f168201915b505050505090806002018054600181600116156101000203166002900480601f0160208091040260200160405190810160405280929190818152602001828054600181600116156101000203166002900480156104e25780601f106104b7576101008083540402835291602001916104e2565b820191906000526020600020905b8154815290600101906020018083116104c557829003601f168201915b5050505050905083565b60015481565b6001600081548092919060010191905055506060604051908101604052808481526020018381526020018281525060008060015481526020019081526020016000206000820151816000019080519060200190610550929190610593565b50602082015181600101908051906020019061056d929190610593565b50604082015181600201908051906020019061058a929190610593565b50905050505050565b828054600181600116156101000203166002900490600052602060002090601f016020900481019282601f106105d457805160ff1916838001178555610602565b82800160010185558215610602579182015b828111156106015782518255916020019190600101906105e6565b5b50905061060f9190610613565b5090565b61063591905b80821115610631576000816000905550600101610619565b5090565b905600a165627a7a723058207ab17a33eaf97a055c0a52bfda4b2e8b0334bfefbe9790f0c238e3f1c713456a0029",
  "source": "pragma solidity >=0.4.22 <0.6.0;\n\ncontract Users {\n    \n    struct User {\n        string username;\n        string password;\n        string wallet_address;\n    }\n    \n    // Users mappings\n    mapping(uint => User) public users;\n    \n    // Users count\n    uint public usersCount;\n    \n    constructor () public {\n        usersCount=0;\n    }\n    \n    \n    function addUser(string _username, string _password, string _wallet_address) public {\n        usersCount++;\n        users[usersCount]=User(_username,_password,_wallet_address);\n    }\n    \n}",
  "sourcePath": "/home/filip/Desktop/master-thesis/truffle_movementApp/contracts/Users.sol",
  "compiler": {
    "name": "solc",
    "version": "0.4.22+commit.4cb486ee.Emscripten.clang"
  },
  "schemaVersion": "3.2.2",
  "updatedAt": "2020-07-13T13:21:02.511Z",
  "devdoc": {
    "methods": {}
  },
  "userdoc": {
    "methods": {}
  }
}